{
  "abi": [
    {
      "type": "constructor",
      "inputs": [
        {
          "name": "_owners",
          "type": "address[]",
          "internalType": "address[]"
        },
        {
          "name": "_required",
          "type": "uint256",
          "internalType": "uint256"
        }
      ],
      "stateMutability": "nonpayable"
    },
    {
      "type": "receive",
      "stateMutability": "payable"
    },
    {
      "type": "function",
      "name": "approveTransaction",
      "inputs": [
        {
          "name": "_txId",
          "type": "uint256",
          "internalType": "uint256"
        }
      ],
      "outputs": [],
      "stateMutability": "nonpayable"
    },
    {
      "type": "function",
      "name": "deposit",
      "inputs": [],
      "outputs": [],
      "stateMutability": "payable"
    },
    {
      "type": "function",
      "name": "getApproved",
      "inputs": [
        {
          "name": "_txId",
          "type": "uint256",
          "internalType": "uint256"
        },
        {
          "name": "_owner",
          "type": "address",
          "internalType": "address"
        }
      ],
      "outputs": [
        {
          "name": "",
          "type": "bool",
          "internalType": "bool"
        }
      ],
      "stateMutability": "view"
    },
    {
      "type": "function",
      "name": "getBalance",
      "inputs": [],
      "outputs": [
        {
          "name": "",
          "type": "uint256",
          "internalType": "uint256"
        }
      ],
      "stateMutability": "view"
    },
    {
      "type": "function",
      "name": "getOwners",
      "inputs": [],
      "outputs": [
        {
          "name": "",
          "type": "address[]",
          "internalType": "address[]"
        }
      ],
      "stateMutability": "view"
    },
    {
      "type": "function",
      "name": "getOwnersCount",
      "inputs": [],
      "outputs": [
        {
          "name": "",
          "type": "uint256",
          "internalType": "uint256"
        }
      ],
      "stateMutability": "view"
    },
    {
      "type": "function",
      "name": "getTransaction",
      "inputs": [
        {
          "name": "_txId",
          "type": "uint256",
          "internalType": "uint256"
        }
      ],
      "outputs": [
        {
          "name": "destination",
          "type": "address",
          "internalType": "address"
        },
        {
          "name": "value",
          "type": "uint256",
          "internalType": "uint256"
        },
        {
          "name": "data",
          "type": "bytes",
          "internalType": "bytes"
        },
        {
          "name": "executed",
          "type": "bool",
          "internalType": "bool"
        },
        {
          "name": "numApprovals",
          "type": "uint256",
          "internalType": "uint256"
        }
      ],
      "stateMutability": "view"
    },
    {
      "type": "function",
      "name": "getTransactionCount",
      "inputs": [],
      "outputs": [
        {
          "name": "",
          "type": "uint256",
          "internalType": "uint256"
        }
      ],
      "stateMutability": "view"
    },
    {
      "type": "function",
      "name": "getnumRequired",
      "inputs": [],
      "outputs": [
        {
          "name": "",
          "type": "uint256",
          "internalType": "uint256"
        }
      ],
      "stateMutability": "view"
    },
    {
      "type": "function",
      "name": "isOwner",
      "inputs": [
        {
          "name": "_owner",
          "type": "address",
          "internalType": "address"
        }
      ],
      "outputs": [
        {
          "name": "",
          "type": "bool",
          "internalType": "bool"
        }
      ],
      "stateMutability": "view"
    },
    {
      "type": "function",
      "name": "revokeTransaction",
      "inputs": [
        {
          "name": "_txId",
          "type": "uint256",
          "internalType": "uint256"
        }
      ],
      "outputs": [],
      "stateMutability": "nonpayable"
    },
    {
      "type": "function",
      "name": "submitTransaction",
      "inputs": [
        {
          "name": "_to",
          "type": "address",
          "internalType": "address"
        },
        {
          "name": "_value",
          "type": "uint256",
          "internalType": "uint256"
        },
        {
          "name": "_data",
          "type": "bytes",
          "internalType": "bytes"
        }
      ],
      "outputs": [],
      "stateMutability": "nonpayable"
    },
    {
      "type": "function",
      "name": "withdraw",
      "inputs": [
        {
          "name": "_amount",
          "type": "uint256",
          "internalType": "uint256"
        }
      ],
      "outputs": [],
      "stateMutability": "nonpayable"
    },
    {
      "type": "event",
      "name": "ApproveTransaction",
      "inputs": [
        {
          "name": "txId",
          "type": "uint256",
          "indexed": true,
          "internalType": "uint256"
        },
        {
          "name": "owner",
          "type": "address",
          "indexed": true,
          "internalType": "address"
        }
      ],
      "anonymous": false
    },
    {
      "type": "event",
      "name": "Deposit",
      "inputs": [
        {
          "name": "sender",
          "type": "address",
          "indexed": true,
          "internalType": "address"
        },
        {
          "name": "value",
          "type": "uint256",
          "indexed": false,
          "internalType": "uint256"
        },
        {
          "name": "balance",
          "type": "uint256",
          "indexed": false,
          "internalType": "uint256"
        }
      ],
      "anonymous": false
    },
    {
      "type": "event",
      "name": "ExecuteTransaction",
      "inputs": [
        {
          "name": "txId",
          "type": "uint256",
          "indexed": true,
          "internalType": "uint256"
        },
        {
          "name": "destination",
          "type": "address",
          "indexed": true,
          "internalType": "address"
        },
        {
          "name": "value",
          "type": "uint256",
          "indexed": false,
          "internalType": "uint256"
        },
        {
          "name": "data",
          "type": "bytes",
          "indexed": false,
          "internalType": "bytes"
        }
      ],
      "anonymous": false
    },
    {
      "type": "event",
      "name": "RevokeTransaction",
      "inputs": [
        {
          "name": "txId",
          "type": "uint256",
          "indexed": true,
          "internalType": "uint256"
        },
        {
          "name": "owner",
          "type": "address",
          "indexed": true,
          "internalType": "address"
        }
      ],
      "anonymous": false
    },
    {
      "type": "event",
      "name": "SubmitTransaction",
      "inputs": [
        {
          "name": "txId",
          "type": "uint256",
          "indexed": true,
          "internalType": "uint256"
        },
        {
          "name": "owner",
          "type": "address",
          "indexed": true,
          "internalType": "address"
        },
        {
          "name": "destination",
          "type": "address",
          "indexed": true,
          "internalType": "address"
        },
        {
          "name": "value",
          "type": "uint256",
          "indexed": false,
          "internalType": "uint256"
        }
      ],
      "anonymous": false
    },
    {
      "type": "event",
      "name": "Withdraw",
      "inputs": [
        {
          "name": "amount",
          "type": "uint256",
          "indexed": false,
          "internalType": "uint256"
        },
        {
          "name": "recipient",
          "type": "address",
          "indexed": true,
          "internalType": "address"
        }
      ],
      "anonymous": false
    },
    {
      "type": "error",
      "name": "MSW__AlreadyApproved",
      "inputs": []
    },
    {
      "type": "error",
      "name": "MSW__AlreadyExecuted",
      "inputs": []
    },
    {
      "type": "error",
      "name": "MSW__InvalidAddressZeroOwner",
      "inputs": []
    },
    {
      "type": "error",
      "name": "MSW__InvalidRequiredOwners",
      "inputs": []
    },
    {
      "type": "error",
      "name": "MSW__InvalidTxId",
      "inputs": []
    },
    {
      "type": "error",
      "name": "MSW__NoOwners",
      "inputs": []
    },
    {
      "type": "error",
      "name": "MSW__NotApproved",
      "inputs": []
    },
    {
      "type": "error",
      "name": "MSW__NotEnoughApprovals",
      "inputs": []
    },
    {
      "type": "error",
      "name": "MSW__NotEnoughFunds",
      "inputs": []
    },
    {
      "type": "error",
      "name": "MSW__OwnerNotUnique",
      "inputs": [
        {
          "name": "owner",
          "type": "address",
          "internalType": "address"
        }
      ]
    },
    {
      "type": "error",
      "name": "MSW__TxFailed",
      "inputs": []
    },
    {
      "type": "error",
      "name": "MSW__Unauthorized",
      "inputs": []
    }
  ],
  "bytecode": {
    "object": "0x60806040523480156200001157600080fd5b50604051620011bd380380620011bd8339810160408190526200003491620001d3565b81516000036200005757604051635263450960e11b815260040160405180910390fd5b6001811080620000675750815181115b1562000086576040516311289d4d60e01b815260040160405180910390fd5b60005b825181101562000195576000838281518110620000aa57620000aa620002ad565b6020908102919091018101516001600160a01b0381166000908152600390925260409091205490915060ff161562000104576040516342d347e360e11b81526001600160a01b038216600482015260240160405180910390fd5b6001600160a01b0381166200012c5760405163b15b584160e01b815260040160405180910390fd5b60008054600181810183557f290decd9548b62a8d60345a988386fc84ba6bc95484008f6362f93160ef3e56390910180546001600160a01b039094166001600160a01b031990941684179055918152600360205260409020805460ff1916821790550162000089565b5060015550620002c3565b634e487b7160e01b600052604160045260246000fd5b80516001600160a01b0381168114620001ce57600080fd5b919050565b60008060408385031215620001e757600080fd5b82516001600160401b0380821115620001ff57600080fd5b818501915085601f8301126200021457600080fd5b81516020828211156200022b576200022b620001a0565b8160051b604051601f19603f83011681018181108682111715620002535762000253620001a0565b6040529283528183019350848101820192898411156200027257600080fd5b948201945b838610156200029b576200028b86620001b6565b8552948201949382019362000277565b97909101519698969750505050505050565b634e487b7160e01b600052603260045260246000fd5b610eea80620002d36000396000f3fe6080604052600436106100c65760003560e01c806344b4e1841161007f578063a0e67e2b11610059578063a0e67e2b14610249578063c64274741461026b578063d0e30db01461028b578063dd10f3381461029357600080fd5b806344b4e184146101ff578063735631ad1461021457806373ff81cc1461023457600080fd5b806312065fe01461010c578063242232d11461012e5780632e1a7d4d146101505780632e7700f0146101705780632f54bf6e1461018557806333ea3dc8146101ce57600080fd5b36610107576040805134815247602082015233917f90890809c654f11d6e72a28fa60149770a0d11ec6c92319d6ceb2bb0a4ea1a15910160405180910390a2005b600080fd5b34801561011857600080fd5b50475b6040519081526020015b60405180910390f35b34801561013a57600080fd5b5061014e610149366004610a19565b6102b3565b005b34801561015c57600080fd5b5061014e61016b366004610a19565b610415565b34801561017c57600080fd5b5060025461011b565b34801561019157600080fd5b506101be6101a0366004610a4e565b6001600160a01b031660009081526003602052604090205460ff1690565b6040519015158152602001610125565b3480156101da57600080fd5b506101ee6101e9366004610a19565b6104d2565b604051610125959493929190610a70565b34801561020b57600080fd5b5060015461011b565b34801561022057600080fd5b5061014e61022f366004610a19565b6105b6565b34801561024057600080fd5b5060005461011b565b34801561025557600080fd5b5061025e6106ff565b6040516101259190610aec565b34801561027757600080fd5b5061014e610286366004610b39565b610761565b61014e610877565b34801561029f57600080fd5b506101be6102ae366004610bc0565b6108b3565b3360009081526003602052604090205460ff166102e25760405162ce51b560e61b815260040160405180910390fd5b60008181526004602052604090205481906001600160a01b031661031957604051630ce22b2760e21b815260040160405180910390fd5b600082815260046020526040902060030154829060ff161561034e57604051639fd60b5960e01b815260040160405180910390fd5b6000838152600460209081526040808320338452600501909152902054839060ff161561038e5760405163262a628160e01b815260040160405180910390fd5b6000848152600460208181526040808420338552600581019092528320805460ff19166001179055908101805491926103c683610c02565b9091555050604051339086907f72224bf551d1ce069c1a2440132e14e1ef15d45977e00541090a35901e527f3b90600090a360015481600401541061040e5761040e856108e3565b5050505050565b3360009081526003602052604090205460ff166104445760405162ce51b560e61b815260040160405180910390fd5b47811115610465576040516396ef270360e01b815260040160405180910390fd5b604051600090339083908381818185875af1925050503d80600081146104a7576040519150601f19603f3d011682016040523d82523d6000602084013e6104ac565b606091505b50509050806104ce5760405163b124c4b960e01b815260040160405180910390fd5b5050565b600081815260046020819052604082208054600182015460038301549383015460028401805487966060968896879691956001600160a01b03909116949193919260ff1691839061052290610c1b565b80601f016020809104026020016040519081016040528092919081815260200182805461054e90610c1b565b801561059b5780601f106105705761010080835404028352916020019161059b565b820191906000526020600020905b81548152906001019060200180831161057e57829003601f168201915b50505050509250955095509550955095505091939590929450565b3360009081526003602052604090205460ff166105e55760405162ce51b560e61b815260040160405180910390fd5b60008181526004602052604090205481906001600160a01b031661061c57604051630ce22b2760e21b815260040160405180910390fd5b600082815260046020526040902060030154829060ff161561065157604051639fd60b5960e01b815260040160405180910390fd5b6000838152600460209081526040808320338452600501909152902054839060ff16156106915760405163262a628160e01b815260040160405180910390fd5b6000848152600460208181526040808420338552600581019092528320805460ff19169055908101805491926106c683610c55565b9091555050604051339086907f1d53f3475ae97f85ca90d7ba5e309950e3b2cb8450eb352a29ad20c9517bde9c90600090a35050505050565b6060600080548060200260200160405190810160405280929190818152602001828054801561075757602002820191906000526020600020905b81546001600160a01b03168152600190910190602001808311610739575b5050505050905090565b3360009081526003602052604090205460ff166107905760405162ce51b560e61b815260040160405180910390fd5b6002546000908152600460205260409020478411156107c2576040516396ef270360e01b815260040160405180910390fd5b80546001600160a01b0319166001600160a01b03861617815560018101849055600281016107f1838583610cd3565b5060038101805460ff19169055600060048201819055600280549161081583610c02565b9190505550846001600160a01b0316336001600160a01b0316600160025461083d9190610d93565b6040518781527f38e6033954a3fbfd9144c2a5ba8305f8047c02e984bf0da9dd2931266a4773809060200160405180910390a45050505050565b6040805134815247602082015233917f90890809c654f11d6e72a28fa60149770a0d11ec6c92319d6ceb2bb0a4ea1a15910160405180910390a2565b60008281526004602090815260408083206001600160a01b038516845260050190915290205460ff165b92915050565b600081815260046020526040902060030154819060ff161561091857604051639fd60b5960e01b815260040160405180910390fd5b60008281526004602052604080822060038101805460ff1916600190811790915581549082015492519193926001600160a01b039091169161095e906002860190610da6565b60006040518083038185875af1925050503d806000811461099b576040519150601f19603f3d011682016040523d82523d6000602084013e6109a0565b606091505b50509050806109c25760405163b124c4b960e01b815260040160405180910390fd5b815460018301546040516001600160a01b039092169186917f6eb516ef5f9467cab8006ea596434293bebe276e616d4cb82f7b035725059a9791610a0b91906002880190610e1c565b60405180910390a350505050565b600060208284031215610a2b57600080fd5b5035919050565b80356001600160a01b0381168114610a4957600080fd5b919050565b600060208284031215610a6057600080fd5b610a6982610a32565b9392505050565b60018060a01b03861681526000602086602084015260a0604084015285518060a085015260005b81811015610ab35787810183015185820160c001528201610a97565b50600060c0828601015260c0601f19601f83011685010192505050610adc606083018515159052565b8260808301529695505050505050565b6020808252825182820181905260009190848201906040850190845b81811015610b2d5783516001600160a01b031683529284019291840191600101610b08565b50909695505050505050565b60008060008060608587031215610b4f57600080fd5b610b5885610a32565b935060208501359250604085013567ffffffffffffffff80821115610b7c57600080fd5b818701915087601f830112610b9057600080fd5b813581811115610b9f57600080fd5b886020828501011115610bb157600080fd5b95989497505060200194505050565b60008060408385031215610bd357600080fd5b82359150610be360208401610a32565b90509250929050565b634e487b7160e01b600052601160045260246000fd5b600060018201610c1457610c14610bec565b5060010190565b600181811c90821680610c2f57607f821691505b602082108103610c4f57634e487b7160e01b600052602260045260246000fd5b50919050565b600081610c6457610c64610bec565b506000190190565b634e487b7160e01b600052604160045260246000fd5b601f821115610cce576000816000526020600020601f850160051c81016020861015610cab5750805b601f850160051c820191505b81811015610cca57828155600101610cb7565b5050505b505050565b67ffffffffffffffff831115610ceb57610ceb610c6c565b610cff83610cf98354610c1b565b83610c82565b6000601f841160018114610d335760008515610d1b5750838201355b600019600387901b1c1916600186901b17835561040e565b600083815260209020601f19861690835b82811015610d645786850135825560209485019460019092019101610d44565b5086821015610d815760001960f88860031b161c19848701351681555b505060018560011b0183555050505050565b818103818111156108dd576108dd610bec565b6000808354610db481610c1b565b60018281168015610dcc5760018114610de157610e10565b60ff1984168752821515830287019450610e10565b8760005260208060002060005b85811015610e075781548a820152908401908201610dee565b50505082870194505b50929695505050505050565b828152600060206040602084015260008454610e3781610c1b565b8060408701526060600180841660008114610e595760018114610e7557610ea5565b60ff19851660608a0152606084151560051b8a01019550610ea5565b89600052602060002060005b85811015610e9c5781548b8201860152908301908801610e81565b8a016060019650505b5093999850505050505050505056fea2646970667358221220a563b3d309c3c50d8829712e432b53f872b18c4f1ba000892036ce46b3fccc5564736f6c63430008170033",
    "linkReferences": {}
  },
  "methodIdentifiers": {
    "approveTransaction(uint256)": "242232d1",
    "deposit()": "d0e30db0",
    "getApproved(uint256,address)": "dd10f338",
    "getBalance()": "12065fe0",
    "getOwners()": "a0e67e2b",
    "getOwnersCount()": "73ff81cc",
    "getTransaction(uint256)": "33ea3dc8",
    "getTransactionCount()": "2e7700f0",
    "getnumRequired()": "44b4e184",
    "isOwner(address)": "2f54bf6e",
    "revokeTransaction(uint256)": "735631ad",
    "submitTransaction(address,uint256,bytes)": "c6427474",
    "withdraw(uint256)": "2e1a7d4d"
  },
  "id": 28
}