{
  "abi": [
    {
      "type": "function",
      "name": "create",
      "inputs": [
        {
          "name": "_owners",
          "type": "address[]",
          "internalType": "address[]"
        },
        {
          "name": "_required",
          "type": "uint256",
          "internalType": "uint256"
        }
      ],
      "outputs": [],
      "stateMutability": "nonpayable"
    },
    {
      "type": "function",
      "name": "getWallet",
      "inputs": [
        {
          "name": "_index",
          "type": "uint256",
          "internalType": "uint256"
        }
      ],
      "outputs": [
        {
          "name": "",
          "type": "address",
          "internalType": "address"
        }
      ],
      "stateMutability": "view"
    },
    {
      "type": "function",
      "name": "getWalletCount",
      "inputs": [
        {
          "name": "_owner",
          "type": "address",
          "internalType": "address"
        }
      ],
      "outputs": [
        {
          "name": "",
          "type": "uint256",
          "internalType": "uint256"
        }
      ],
      "stateMutability": "view"
    },
    {
      "type": "function",
      "name": "getWalletOwner",
      "inputs": [
        {
          "name": "_owner",
          "type": "address",
          "internalType": "address"
        }
      ],
      "outputs": [
        {
          "name": "",
          "type": "address[]",
          "internalType": "contract MultiSigWallet[]"
        }
      ],
      "stateMutability": "view"
    },
    {
      "type": "event",
      "name": "Create",
      "inputs": [
        {
          "name": "wallet",
          "type": "address",
          "indexed": true,
          "internalType": "address"
        }
      ],
      "anonymous": false
    },
    {
      "type": "error",
      "name": "MSWF__InvalidIndex",
      "inputs": []
    },
    {
      "type": "error",
      "name": "MSWF__SenderNotAnOwner",
      "inputs": []
    }
  ],
  "bytecode": {
    "object": "0x608060405234801561001057600080fd5b506118eb806100206000396000f3fe60806040523480156200001157600080fd5b5060043610620000525760003560e01c80635470b13b1462000057578063878023d4146200008b578063966708a514620000c6578063f8f7380814620000ec575b600080fd5b6200006e62000068366004620004dc565b62000105565b6040516001600160a01b0390911681526020015b60405180910390f35b620000b76200009c36600462000513565b6001600160a01b031660009081526001602052604090205490565b60405190815260200162000082565b620000dd620000d736600462000513565b6200017a565b60405162000082919062000538565b62000103620000fd3660046200059d565b6200027f565b005b3360009081526001602052604081205482908110620001375760405163cf97632b60e01b815260040160405180910390fd5b33600090815260208190526040902080548190859081106200015d576200015d62000676565b6000918252602090912001546001600160a01b0316949350505050565b6001600160a01b03811660009081526020819052604081206060915b81546001600160a01b03821610156200021e57620002096040518060400160405280600a81526020016977616c6c65743a20257360b01b81525083836001600160a01b031681548110620001ee57620001ee62000676565b6000918252602090912001546001600160a01b031662000460565b806200021581620006a2565b91505062000196565b508054604080516020808402820181019092528281529183918301828280156200027257602002820191906000526020600020905b81546001600160a01b0316815260019091019060200180831162000253575b5050505050915050919050565b600082826040516200029190620004ce565b6200029e929190620006d3565b604051809103906000f080158015620002bb573d6000803e3d6000fd5b5090506000805b8451811015620003d457600080868381518110620002e457620002e462000676565b6020908102919091018101516001600160a01b039081168352828201939093526040909101600090812080546001808201835591835292822090920180546001600160a01b03191693871693909317909255865190919087908490811062000350576200035062000676565b60200260200101516001600160a01b03166001600160a01b0316815260200190815260200160002060008154809291906200038b906200072b565b9190505550336001600160a01b0316858281518110620003af57620003af62000676565b60200260200101516001600160a01b031603620003cb57600191505b600101620002c2565b50620004076040518060400160405280600e81526020016d6d73672e73656e6465723a20257360901b8152503362000460565b8062000426576040516301b1692b60e51b815260040160405180910390fd5b6040516001600160a01b038316907fe3758539c1bd6726422843471b2886c2d2cefd3b4aead6778386283e20a32a8090600090a250505050565b620004a982826040516024016200047992919062000747565b60408051601f198184030181529190526020810180516001600160e01b031663319af33360e01b179052620004ad565b5050565b80516a636f6e736f6c652e6c6f67602083016000808483855afa5050505050565b61110c80620007aa83390190565b600060208284031215620004ef57600080fd5b5035919050565b80356001600160a01b03811681146200050e57600080fd5b919050565b6000602082840312156200052657600080fd5b6200053182620004f6565b9392505050565b6020808252825182820181905260009190848201906040850190845b818110156200057b5783516001600160a01b03168352928401929184019160010162000554565b50909695505050505050565b634e487b7160e01b600052604160045260246000fd5b60008060408385031215620005b157600080fd5b823567ffffffffffffffff80821115620005ca57600080fd5b818501915085601f830112620005df57600080fd5b8135602082821115620005f657620005f662000587565b8160051b604051601f19603f830116810181811086821117156200061e576200061e62000587565b6040529283528183019350848101820192898411156200063d57600080fd5b948201945b8386101562000666576200065686620004f6565b8552948201949382019362000642565b9997909101359750505050505050565b634e487b7160e01b600052603260045260246000fd5b634e487b7160e01b600052601160045260246000fd5b60006001600160a01b038281166002600160a01b03198101620006c957620006c96200068c565b6001019392505050565b604080825283519082018190526000906020906060840190828701845b82811015620007175781516001600160a01b031684529284019290840190600101620006f0565b505050602093909301939093525092915050565b6000600182016200074057620007406200068c565b5060010190565b604081526000835180604084015260005b8181101562000777576020818701810151606086840101520162000758565b50600060608285018101919091526001600160a01b03949094166020840152601f01601f19169091019091019291505056fe60806040523480156200001157600080fd5b506040516200110c3803806200110c8339810160408190526200003491620001d3565b81516000036200005757604051635263450960e11b815260040160405180910390fd5b6001811080620000675750815181115b1562000086576040516311289d4d60e01b815260040160405180910390fd5b60005b825181101562000195576000838281518110620000aa57620000aa620002ad565b6020908102919091018101516001600160a01b0381166000908152600390925260409091205490915060ff161562000104576040516342d347e360e11b81526001600160a01b038216600482015260240160405180910390fd5b6001600160a01b0381166200012c5760405163b15b584160e01b815260040160405180910390fd5b60008054600181810183557f290decd9548b62a8d60345a988386fc84ba6bc95484008f6362f93160ef3e56390910180546001600160a01b039094166001600160a01b031990941684179055918152600360205260409020805460ff1916821790550162000089565b5060015550620002c3565b634e487b7160e01b600052604160045260246000fd5b80516001600160a01b0381168114620001ce57600080fd5b919050565b60008060408385031215620001e757600080fd5b82516001600160401b0380821115620001ff57600080fd5b818501915085601f8301126200021457600080fd5b81516020828211156200022b576200022b620001a0565b8160051b604051601f19603f83011681018181108682111715620002535762000253620001a0565b6040529283528183019350848101820192898411156200027257600080fd5b948201945b838610156200029b576200028b86620001b6565b8552948201949382019362000277565b97909101519698969750505050505050565b634e487b7160e01b600052603260045260246000fd5b610e3980620002d36000396000f3fe6080604052600436106100a05760003560e01c806333ea3dc81161006457806333ea3dc8146101a857806344b4e184146101d9578063735631ad146101ee578063a0e67e2b1461020e578063c642747414610230578063d0e30db01461025057600080fd5b806312065fe0146100e6578063242232d1146101085780632e1a7d4d1461012a5780632e7700f01461014a5780632f54bf6e1461015f57600080fd5b366100e1576040805134815247602082015233917f90890809c654f11d6e72a28fa60149770a0d11ec6c92319d6ceb2bb0a4ea1a15910160405180910390a2005b600080fd5b3480156100f257600080fd5b50475b6040519081526020015b60405180910390f35b34801561011457600080fd5b5061012861012336600461098e565b610258565b005b34801561013657600080fd5b5061012861014536600461098e565b6103ba565b34801561015657600080fd5b506002546100f5565b34801561016b57600080fd5b5061019861017a3660046109c3565b6001600160a01b031660009081526003602052604090205460ff1690565b60405190151581526020016100ff565b3480156101b457600080fd5b506101c86101c336600461098e565b610477565b6040516100ff9594939291906109e5565b3480156101e557600080fd5b506001546100f5565b3480156101fa57600080fd5b5061012861020936600461098e565b61055b565b34801561021a57600080fd5b506102236106a4565b6040516100ff9190610a61565b34801561023c57600080fd5b5061012861024b366004610aae565b610706565b61012861081c565b3360009081526003602052604090205460ff166102875760405162ce51b560e61b815260040160405180910390fd5b60008181526004602052604090205481906001600160a01b03166102be57604051630ce22b2760e21b815260040160405180910390fd5b600082815260046020526040902060030154829060ff16156102f357604051639fd60b5960e01b815260040160405180910390fd5b6000838152600460209081526040808320338452600501909152902054839060ff16156103335760405163262a628160e01b815260040160405180910390fd5b6000848152600460208181526040808420338552600581019092528320805460ff191660011790559081018054919261036b83610b4b565b9091555050604051339086907f72224bf551d1ce069c1a2440132e14e1ef15d45977e00541090a35901e527f3b90600090a36001548160040154106103b3576103b385610858565b5050505050565b3360009081526003602052604090205460ff166103e95760405162ce51b560e61b815260040160405180910390fd5b4781111561040a576040516396ef270360e01b815260040160405180910390fd5b604051600090339083908381818185875af1925050503d806000811461044c576040519150601f19603f3d011682016040523d82523d6000602084013e610451565b606091505b50509050806104735760405163b124c4b960e01b815260040160405180910390fd5b5050565b600081815260046020819052604082208054600182015460038301549383015460028401805487966060968896879691956001600160a01b03909116949193919260ff169183906104c790610b64565b80601f01602080910402602001604051908101604052809291908181526020018280546104f390610b64565b80156105405780601f1061051557610100808354040283529160200191610540565b820191906000526020600020905b81548152906001019060200180831161052357829003601f168201915b50505050509250955095509550955095505091939590929450565b3360009081526003602052604090205460ff1661058a5760405162ce51b560e61b815260040160405180910390fd5b60008181526004602052604090205481906001600160a01b03166105c157604051630ce22b2760e21b815260040160405180910390fd5b600082815260046020526040902060030154829060ff16156105f657604051639fd60b5960e01b815260040160405180910390fd5b6000838152600460209081526040808320338452600501909152902054839060ff16156106365760405163262a628160e01b815260040160405180910390fd5b6000848152600460208181526040808420338552600581019092528320805460ff191690559081018054919261066b83610b9e565b9091555050604051339086907f1d53f3475ae97f85ca90d7ba5e309950e3b2cb8450eb352a29ad20c9517bde9c90600090a35050505050565b606060008054806020026020016040519081016040528092919081815260200182805480156106fc57602002820191906000526020600020905b81546001600160a01b031681526001909101906020018083116106de575b5050505050905090565b3360009081526003602052604090205460ff166107355760405162ce51b560e61b815260040160405180910390fd5b600254600090815260046020526040902047841115610767576040516396ef270360e01b815260040160405180910390fd5b80546001600160a01b0319166001600160a01b0386161781556001810184905560028101610796838583610c1c565b5060038101805460ff1916905560006004820181905560028054916107ba83610b4b565b9190505550846001600160a01b0316336001600160a01b031660016002546107e29190610cdc565b6040518781527f38e6033954a3fbfd9144c2a5ba8305f8047c02e984bf0da9dd2931266a4773809060200160405180910390a45050505050565b6040805134815247602082015233917f90890809c654f11d6e72a28fa60149770a0d11ec6c92319d6ceb2bb0a4ea1a15910160405180910390a2565b600081815260046020526040902060030154819060ff161561088d57604051639fd60b5960e01b815260040160405180910390fd5b60008281526004602052604080822060038101805460ff1916600190811790915581549082015492519193926001600160a01b03909116916108d3906002860190610cf5565b60006040518083038185875af1925050503d8060008114610910576040519150601f19603f3d011682016040523d82523d6000602084013e610915565b606091505b50509050806109375760405163b124c4b960e01b815260040160405180910390fd5b815460018301546040516001600160a01b039092169186917f6eb516ef5f9467cab8006ea596434293bebe276e616d4cb82f7b035725059a979161098091906002880190610d6b565b60405180910390a350505050565b6000602082840312156109a057600080fd5b5035919050565b80356001600160a01b03811681146109be57600080fd5b919050565b6000602082840312156109d557600080fd5b6109de826109a7565b9392505050565b60018060a01b03861681526000602086602084015260a0604084015285518060a085015260005b81811015610a285787810183015185820160c001528201610a0c565b50600060c0828601015260c0601f19601f83011685010192505050610a51606083018515159052565b8260808301529695505050505050565b6020808252825182820181905260009190848201906040850190845b81811015610aa25783516001600160a01b031683529284019291840191600101610a7d565b50909695505050505050565b60008060008060608587031215610ac457600080fd5b610acd856109a7565b935060208501359250604085013567ffffffffffffffff80821115610af157600080fd5b818701915087601f830112610b0557600080fd5b813581811115610b1457600080fd5b886020828501011115610b2657600080fd5b95989497505060200194505050565b634e487b7160e01b600052601160045260246000fd5b600060018201610b5d57610b5d610b35565b5060010190565b600181811c90821680610b7857607f821691505b602082108103610b9857634e487b7160e01b600052602260045260246000fd5b50919050565b600081610bad57610bad610b35565b506000190190565b634e487b7160e01b600052604160045260246000fd5b601f821115610c17576000816000526020600020601f850160051c81016020861015610bf45750805b601f850160051c820191505b81811015610c1357828155600101610c00565b5050505b505050565b67ffffffffffffffff831115610c3457610c34610bb5565b610c4883610c428354610b64565b83610bcb565b6000601f841160018114610c7c5760008515610c645750838201355b600019600387901b1c1916600186901b1783556103b3565b600083815260209020601f19861690835b82811015610cad5786850135825560209485019460019092019101610c8d565b5086821015610cca5760001960f88860031b161c19848701351681555b505060018560011b0183555050505050565b81810381811115610cef57610cef610b35565b92915050565b6000808354610d0381610b64565b60018281168015610d1b5760018114610d3057610d5f565b60ff1984168752821515830287019450610d5f565b8760005260208060002060005b85811015610d565781548a820152908401908201610d3d565b50505082870194505b50929695505050505050565b828152600060206040602084015260008454610d8681610b64565b8060408701526060600180841660008114610da85760018114610dc457610df4565b60ff19851660608a0152606084151560051b8a01019550610df4565b89600052602060002060005b85811015610deb5781548b8201860152908301908801610dd0565b8a016060019650505b5093999850505050505050505056fea2646970667358221220150c65d0aaba49044b6f3a4f43398ed365d1bd8bbe38793b0dcd4affec844ef564736f6c63430008170033a2646970667358221220600f90af0c73b3b97460141efb746c1023f3bee784bbdc5a6b1f356a0edce75864736f6c63430008170033",
    "linkReferences": {}
  },
  "methodIdentifiers": {
    "create(address[],uint256)": "f8f73808",
    "getWallet(uint256)": "5470b13b",
    "getWalletCount(address)": "878023d4",
    "getWalletOwner(address)": "966708a5"
  },
  "id": 29
}