{
  "abi": [
    {
      "type": "constructor",
      "inputs": [
        {
          "name": "_lendingPool",
          "type": "address",
          "internalType": "contract IPool"
        },
        {
          "name": "_wethGatewayAddress",
          "type": "address",
          "internalType": "contract IWrappedTokenGatewayV3"
        },
        {
          "name": "_aWethAddress",
          "type": "address",
          "internalType": "address"
        }
      ],
      "stateMutability": "payable"
    },
    {
      "type": "receive",
      "stateMutability": "payable"
    },
    {
      "type": "function",
      "name": "getAWethAddress",
      "inputs": [],
      "outputs": [
        {
          "name": "",
          "type": "address",
          "internalType": "address"
        }
      ],
      "stateMutability": "view"
    },
    {
      "type": "function",
      "name": "getAWethGatewayAddress",
      "inputs": [],
      "outputs": [
        {
          "name": "",
          "type": "address",
          "internalType": "address"
        }
      ],
      "stateMutability": "view"
    },
    {
      "type": "function",
      "name": "getContractAWethBalance",
      "inputs": [],
      "outputs": [
        {
          "name": "",
          "type": "uint256",
          "internalType": "uint256"
        }
      ],
      "stateMutability": "view"
    },
    {
      "type": "function",
      "name": "getContractOwner",
      "inputs": [],
      "outputs": [
        {
          "name": "",
          "type": "address",
          "internalType": "address"
        }
      ],
      "stateMutability": "view"
    },
    {
      "type": "function",
      "name": "getCurrentPositionId",
      "inputs": [],
      "outputs": [
        {
          "name": "",
          "type": "uint256",
          "internalType": "uint256"
        }
      ],
      "stateMutability": "view"
    },
    {
      "type": "function",
      "name": "getInterestRate",
      "inputs": [
        {
          "name": "_numDays",
          "type": "uint256",
          "internalType": "uint256"
        }
      ],
      "outputs": [
        {
          "name": "",
          "type": "uint256",
          "internalType": "uint256"
        }
      ],
      "stateMutability": "view"
    },
    {
      "type": "function",
      "name": "getLendingPoolAddress",
      "inputs": [],
      "outputs": [
        {
          "name": "",
          "type": "address",
          "internalType": "contract IPool"
        }
      ],
      "stateMutability": "view"
    },
    {
      "type": "function",
      "name": "getLockPeriods",
      "inputs": [],
      "outputs": [
        {
          "name": "",
          "type": "uint256[]",
          "internalType": "uint256[]"
        }
      ],
      "stateMutability": "view"
    },
    {
      "type": "function",
      "name": "getPositionByAddress",
      "inputs": [
        {
          "name": "_walletAddress",
          "type": "address",
          "internalType": "address"
        }
      ],
      "outputs": [
        {
          "name": "",
          "type": "uint256[]",
          "internalType": "uint256[]"
        }
      ],
      "stateMutability": "view"
    },
    {
      "type": "function",
      "name": "getPositionById",
      "inputs": [
        {
          "name": "_positionId",
          "type": "uint256",
          "internalType": "uint256"
        }
      ],
      "outputs": [
        {
          "name": "",
          "type": "tuple",
          "internalType": "struct Staking.Position",
          "components": [
            {
              "name": "positionId",
              "type": "uint256",
              "internalType": "uint256"
            },
            {
              "name": "walletAddress",
              "type": "address",
              "internalType": "address"
            },
            {
              "name": "createdDate",
              "type": "uint256",
              "internalType": "uint256"
            },
            {
              "name": "unlockDate",
              "type": "uint256",
              "internalType": "uint256"
            },
            {
              "name": "percentInterest",
              "type": "uint256",
              "internalType": "uint256"
            },
            {
              "name": "weiStaked",
              "type": "uint256",
              "internalType": "uint256"
            },
            {
              "name": "weiInterest",
              "type": "uint256",
              "internalType": "uint256"
            },
            {
              "name": "open",
              "type": "bool",
              "internalType": "bool"
            }
          ]
        }
      ],
      "stateMutability": "view"
    },
    {
      "type": "function",
      "name": "getTiers",
      "inputs": [],
      "outputs": [
        {
          "name": "",
          "type": "uint256[]",
          "internalType": "uint256[]"
        }
      ],
      "stateMutability": "view"
    },
    {
      "type": "function",
      "name": "getWeiFromPosition",
      "inputs": [
        {
          "name": "_positionId",
          "type": "uint256",
          "internalType": "uint256"
        }
      ],
      "outputs": [
        {
          "name": "",
          "type": "uint256",
          "internalType": "uint256"
        }
      ],
      "stateMutability": "view"
    },
    {
      "type": "function",
      "name": "setLockPeriod",
      "inputs": [
        {
          "name": "_numDays",
          "type": "uint256",
          "internalType": "uint256"
        },
        {
          "name": "_basisPoints",
          "type": "uint256",
          "internalType": "uint256"
        }
      ],
      "outputs": [],
      "stateMutability": "nonpayable"
    },
    {
      "type": "function",
      "name": "setUnlockDate",
      "inputs": [
        {
          "name": "_positionId",
          "type": "uint256",
          "internalType": "uint256"
        },
        {
          "name": "_newUnlockDate",
          "type": "uint256",
          "internalType": "uint256"
        }
      ],
      "outputs": [],
      "stateMutability": "nonpayable"
    },
    {
      "type": "function",
      "name": "stakeEther",
      "inputs": [
        {
          "name": "_numDays",
          "type": "uint256",
          "internalType": "uint256"
        }
      ],
      "outputs": [],
      "stateMutability": "payable"
    },
    {
      "type": "function",
      "name": "withdrawPosition",
      "inputs": [
        {
          "name": "_positionId",
          "type": "uint256",
          "internalType": "uint256"
        }
      ],
      "outputs": [],
      "stateMutability": "nonpayable"
    },
    {
      "type": "event",
      "name": "Deposit",
      "inputs": [
        {
          "name": "_from",
          "type": "address",
          "indexed": true,
          "internalType": "address"
        },
        {
          "name": "_value",
          "type": "uint256",
          "indexed": false,
          "internalType": "uint256"
        }
      ],
      "anonymous": false
    },
    {
      "type": "event",
      "name": "NewLockPeriod",
      "inputs": [
        {
          "name": "_numDays",
          "type": "uint256",
          "indexed": false,
          "internalType": "uint256"
        },
        {
          "name": "_basisPoints",
          "type": "uint256",
          "indexed": false,
          "internalType": "uint256"
        }
      ],
      "anonymous": false
    },
    {
      "type": "event",
      "name": "NewUnlockDate",
      "inputs": [
        {
          "name": "_positionId",
          "type": "uint256",
          "indexed": false,
          "internalType": "uint256"
        },
        {
          "name": "_newUnlockDate",
          "type": "uint256",
          "indexed": false,
          "internalType": "uint256"
        }
      ],
      "anonymous": false
    },
    {
      "type": "event",
      "name": "Withdraw",
      "inputs": [
        {
          "name": "_to",
          "type": "address",
          "indexed": true,
          "internalType": "address"
        },
        {
          "name": "_value",
          "type": "uint256",
          "indexed": false,
          "internalType": "uint256"
        }
      ],
      "anonymous": false
    },
    {
      "type": "error",
      "name": "Staking__MappingKeyDoesNotExist",
      "inputs": []
    },
    {
      "type": "error",
      "name": "Staking__MsgValueIsZero",
      "inputs": []
    },
    {
      "type": "error",
      "name": "Staking__NotCreator",
      "inputs": []
    },
    {
      "type": "error",
      "name": "Staking__NotOwner",
      "inputs": []
    },
    {
      "type": "error",
      "name": "Staking__PositionDoesNotExist",
      "inputs": []
    },
    {
      "type": "error",
      "name": "Staking__TransferFailed",
      "inputs": []
    }
  ],
  "bytecode": {
    "object": "0x608060405260405162000fd438038062000fd48339810160408190526200002691620001b2565b600380546001600160a01b031916331781556000600c819055600f60209081526102bc7ffa57bcc70f4245bf648f1c1b5dc6739ff36391ab05179cdb7480d961813e9713556103e87fc73acaf3c3a9fa91d689682cc00a4ee9b89aeb9b70d254f6012be6d346af4dc75561016d918290526105dc7fe944fd5027ca06f9723eb4a9bb30a80302c54ba3a56f08712bd034d5bf6f4ea65560408051606081018252601e8152605a92810192909252810191909152620000e891601091906200012c565b50600080546001600160a01b039485166001600160a01b03199182161790915560018054938516938216939093179092556002805491909316911617905562000206565b82805482825590600052602060002090810192821562000170579160200282015b8281111562000170578251829061ffff169055916020019190600101906200014d565b506200017e92915062000182565b5090565b5b808211156200017e576000815560010162000183565b6001600160a01b0381168114620001af57600080fd5b50565b600080600060608486031215620001c857600080fd5b8351620001d58162000199565b6020850151909350620001e88162000199565b6040850151909250620001fb8162000199565b809150509250925092565b610dbe80620002166000396000f3fe6080604052600436106100f75760003560e01c8063873ecb3a1161008a578063c05ecb9b11610059578063c05ecb9b14610321578063de17057014610143578063e01e141b14610336578063e4f908411461035457600080fd5b8063873ecb3a1461022c578063ab4185df1461024a578063b0d632071461027a578063b838ec861461029a57600080fd5b8063589a9e65116100c6578063589a9e65146101b95780635f36a742146101ce57806372b04ab4146101ec5780637bec402d1461020c57600080fd5b80630c196a741461010357806341ee13be14610143578063442890d514610165578063525c12ea1461019757600080fd5b366100fe57005b600080fd5b34801561010f57600080fd5b5061013061011e366004610c1d565b6000908152600f602052604090205490565b6040519081526020015b60405180910390f35b34801561014f57600080fd5b50610158610367565b60405161013a9190610c36565b34801561017157600080fd5b506003546001600160a01b03165b6040516001600160a01b03909116815260200161013a565b3480156101a357600080fd5b506101b76101b2366004610c1d565b6103bf565b005b3480156101c557600080fd5b50600c54610130565b3480156101da57600080fd5b506000546001600160a01b031661017f565b3480156101f857600080fd5b506101b7610207366004610c7a565b6106bc565b34801561021857600080fd5b506101b7610227366004610c7a565b610769565b34801561023857600080fd5b506001546001600160a01b031661017f565b34801561025657600080fd5b50610130610265366004610c1d565b6000908152600d602052604090206005015490565b34801561028657600080fd5b50610158610295366004610c9c565b6107df565b3480156102a657600080fd5b506102ba6102b5366004610c1d565b61084b565b60405161013a9190815181526020808301516001600160a01b03169082015260408083015190820152606080830151908201526080808301519082015260a0808301519082015260c0808301519082015260e0918201511515918101919091526101000190565b34801561032d57600080fd5b5061013061091a565b34801561034257600080fd5b506002546001600160a01b031661017f565b6101b7610362366004610c1d565b61098c565b606060108054806020026020016040519081016040528092919081815260200182805480156103b557602002820191906000526020600020905b8154815260200190600101908083116103a1575b5050505050905090565b6000818152600d602052604090206007015460ff166103f157604051630958425360e31b815260040160405180910390fd5b6000818152600d60205260409020600101546001600160a01b0316331461042b5760405163aab2bd7d60e01b815260040160405180910390fd5b6000818152600d602052604090819020600701805460ff19169055600254600154915163095ea7b360e01b81526001600160a01b039283166004820152600019602482015291169063095ea7b3906044016020604051808303816000875af115801561049b573d6000803e3d6000fd5b505050506040513d601f19601f820116820180604052508101906104bf9190610ccc565b5060015460008054838252600d602052604091829020600501549151630402806960e51b81526001600160a01b0391821660048201526024810192909252306044830152909116906380500d2090606401600060405180830381600087803b15801561052a57600080fd5b505af115801561053e573d6000803e3d6000fd5b5050506000828152600d602052604090206003015442111590506105f2576000818152600d60205260408120600681015460059091015461057f9190610d04565b604051909150600090339083908381818185875af1925050503d80600081146105c4576040519150601f19603f3d011682016040523d82523d6000602084013e6105c9565b606091505b50509050806105eb5760405163eb4c684760e01b815260040160405180910390fd5b505061066b565b6000818152600d60205260408082206005015490513391908381818185875af1925050503d8060008114610642576040519150601f19603f3d011682016040523d82523d6000602084013e610647565b606091505b50509050806106695760405163eb4c684760e01b815260040160405180910390fd5b505b6000818152600d60205260409081902060050154905133917f884edad9ce6fa2440d8a54cc123490eb96d2768479d49ff9c7366125a9424364916106b191815260200190565b60405180910390a250565b6003546001600160a01b031633146106e7576040516358ecabc560e01b815260040160405180910390fd5b6000828152600f602090815260408083208490556010805460018101825593527f1b6847dc741a1b0cd08d278845f9d819d87b734759afb55fe2de5cb82a9ae67290920184905581518481529081018390527fee38cdd49c6b7bb6e346fdfcb3f136a2e34c9e3b81b5be4a11397a67ff8b7b9191015b60405180910390a15050565b6003546001600160a01b03163314610794576040516358ecabc560e01b815260040160405180910390fd5b6000828152600d602090815260409182902060030183905581518481529081018390527f39252633a2628b91b61afc2307d881193bf68d908ff263ebc84d2a51231cb09a910161075d565b6001600160a01b0381166000908152600e602090815260409182902080548351818402810184019094528084526060939283018282801561083f57602002820191906000526020600020905b81548152602001906001019080831161082b575b50505050509050919050565b61089e6040518061010001604052806000815260200160006001600160a01b0316815260200160008152602001600081526020016000815260200160008152602001600081526020016000151581525090565b506000908152600d60209081526040918290208251610100810184528154815260018201546001600160a01b0316928101929092526002810154928201929092526003820154606082015260048201546080820152600582015460a0820152600682015460c082015260079091015460ff16151560e082015290565b6002546040516370a0823160e01b81523060048201526000916001600160a01b0316906370a0823190602401602060405180830381865afa158015610963573d6000803e3d6000fd5b505050506040513d601f19601f820116820180604052508101906109879190610d1d565b905090565b346000036109ad5760405163ca277a2b60e01b815260040160405180910390fd5b6000818152600f602052604081205490036109db576040516353d952db60e01b815260040160405180910390fd5b600c546000818152600d60209081526040918290208251610100810184526003820154606082015260048201546080820152600582015460a0820152600682015460c082015260079091015460ff16151560e082015292835233908301524290820152610a4b8262015180610d36565b610a559042610d04565b60608201526000828152600f60208181526040832054608085018190523460a0860181905293869052919052610a8c918490610bfc565b60c08201908152600160e08301818152600c80546000908152600d60209081526040808320885181558289015181880180546001600160a01b0319166001600160a01b03909216919091179055818901516002820155606089015160038201556080890151600482015560a089015160058201559651600688015593516007909601805460ff191696151596909617909555338152600e855291822081548154948501825590835293822090920192909255805491610b4a83610d4d565b90915550506001546000805460405163474cf53d60e01b81526001600160a01b03918216600482015230602482015260448101929092529091169063474cf53d9034906064016000604051808303818588803b158015610ba957600080fd5b505af1158015610bbd573d6000803e3d6000fd5b50506040513481523393507fe1fffcc4923d04b559f4d29a8bfc6cda04eb5b0d3c460751c2402c5c5cc9109c9250602001905060405180910390a25050565b6000612710610c0b8386610d36565b610c159190610d66565b949350505050565b600060208284031215610c2f57600080fd5b5035919050565b6020808252825182820181905260009190848201906040850190845b81811015610c6e57835183529284019291840191600101610c52565b50909695505050505050565b60008060408385031215610c8d57600080fd5b50508035926020909101359150565b600060208284031215610cae57600080fd5b81356001600160a01b0381168114610cc557600080fd5b9392505050565b600060208284031215610cde57600080fd5b81518015158114610cc557600080fd5b634e487b7160e01b600052601160045260246000fd5b80820180821115610d1757610d17610cee565b92915050565b600060208284031215610d2f57600080fd5b5051919050565b8082028115828204841417610d1757610d17610cee565b600060018201610d5f57610d5f610cee565b5060010190565b600082610d8357634e487b7160e01b600052601260045260246000fd5b50049056fea2646970667358221220a293c9da7b15a8242742183041e9555c885b5022eee27091c8c4e1a8c61b588d64736f6c63430008170033",
    "linkReferences": {}
  },
  "methodIdentifiers": {
    "getAWethAddress()": "e01e141b",
    "getAWethGatewayAddress()": "873ecb3a",
    "getContractAWethBalance()": "c05ecb9b",
    "getContractOwner()": "442890d5",
    "getCurrentPositionId()": "589a9e65",
    "getInterestRate(uint256)": "0c196a74",
    "getLendingPoolAddress()": "5f36a742",
    "getLockPeriods()": "41ee13be",
    "getPositionByAddress(address)": "b0d63207",
    "getPositionById(uint256)": "b838ec86",
    "getTiers()": "de170570",
    "getWeiFromPosition(uint256)": "ab4185df",
    "setLockPeriod(uint256,uint256)": "72b04ab4",
    "setUnlockDate(uint256,uint256)": "7bec402d",
    "stakeEther(uint256)": "e4f90841",
    "withdrawPosition(uint256)": "525c12ea"
  },
  "id": 26
}